:100000000C9496000C94AB000C94AB000C94AB00D9
:100010000C94AB000C94AB000C94AB000C94AB00B4
:100020000C94AB000C94AB000C94AB000C94AB00A4
:100030000C94AB000C94AB000C94AB000C94AB0094
:100040000C94AB000C94AB000C94AB000C94AB0084
:100050000C94AB00C000D900F2000B012301230176
:100060002301230123012301230123012301230170
:100070002301230123012301230123012301230160
:100080002301230123012301230123012301230150
:1000900023012301C000D900F2000B013001490106
:1000A00062017B01930193019301930193019301F9
:1000B00093019301930193019301930193019301A0
:1000C0009301930193019301930193019301930190
:1000D000930193019301930193019301300149012D
:1000E00062017B01A201B501C801DB01ED01ED0157
:1000F000ED01ED01ED01ED01ED01ED01ED01ED0190
:10010000ED01ED01ED01ED01ED01ED01ED01ED017F
:10011000ED01ED01ED01ED01ED01ED01ED01ED016F
:10012000ED01ED01A201B501C801DB0111241FBEE3
:10013000CFE5D8E0DEBFCDBF10E0A0E6B0E0E0EF55
:10014000F8E002C005900D92A837B107D9F70E94D8
:1001500001030C9476040C94000040E00E94B4006B
:1001600008950E949401089590E0FC01E154F10982
:10017000E432F10508F067C0E65DFF4F0C947004AF
:10018000413059F42AB381E090E002C0880F991FF2
:100190006A95E2F7822B8ABB08952AB381E090E04A
:1001A00002C0880F991F6A95E2F7809582238ABB67
:1001B0000895413059F427B381E090E002C0880FE0
:1001C000991F6A95E2F7822B87BB089527B381E0D8
:1001D00090E002C0880F991F6A95E2F7809582230C
:1001E00087BB0895413059F424B381E090E002C008
:1001F000880F991F6A95E2F7822B84BB089524B378
:1002000081E090E002C0880F991F6A95E2F780951F
:10021000822384BB0895413059F421B381E090E0FA
:1002200002C0880F991F6A95E2F7822B81BB08955F
:1002300021B381E090E002C0880F991F6A95E2F730
:100240008095822381BB089590E0FC01E154F1097F
:10025000E432F10508F067C0E25BFF4F0C947004D4
:10026000413059F42BB381E090E002C0880F991F10
:100270006A95E2F7822B8BBB08952BB381E090E067
:1002800002C0880F991F6A95E2F7809582238BBB85
:100290000895413059F428B381E090E002C0880FFE
:1002A000991F6A95E2F7822B88BB089528B381E0F5
:1002B00090E002C0880F991F6A95E2F7809582232B
:1002C00088BB0895413059F425B381E090E002C025
:1002D000880F991F6A95E2F7822B85BB089525B395
:1002E00081E090E002C0880F991F6A95E2F780953F
:1002F000822385BB0895413059F422B381E090E018
:1003000002C0880F991F6A95E2F7822B82BB08957D
:1003100022B381E090E002C0880F991F6A95E2F74E
:100320008095822382BB0895A62F482F50E0FA01C2
:10033000E154F109E432F10508F04FC0EE58FF4FE7
:100340000C94700429B381E090E00A2E02C0880F5B
:10035000991F0A94E2F730E08223932302C0959517
:100360008795AA95E2F7982F38C026B381E090E0F0
:100370000A2E02C0880F991F0A94E2F730E0822308
:10038000932302C095958795AA95E2F7982F25C0EB
:1003900023B381E090E00A2E02C0880F991F0A94CF
:1003A000E2F730E08223932302C095958795AA95C2
:1003B000E2F7982F12C020B381E090E00A2E02C02D
:1003C000880F991F0A94E2F730E08223932302C03A
:1003D00095958795AA95E2F7982F892F0895FF9212
:1003E0000F931F93CF93DF93F82EC0E0D0E0062F3A
:1003F00010E0A8010C2E02C0559547950A94E2F72B
:1004000041706C2F8F2D0E94B4002196C430D1050D
:1004100081F7DF91CF911F910F91FF900895FF9287
:100420000F931F93CF93DF93F82EC0E0D0E0062FF9
:1004300010E0A8010C2E02C0559547950A94E2F7EA
:1004400041706C2F8F2D0E9424012196C430D1055C
:1004500081F7DF91CF911F910F91FF90089541E0B7
:1004600064E081E60E9424018FE99FE00197F1F7A3
:1004700000C0000040E064E081E60E9424018FE9B2
:100480009FE00197F1F700C000000895CF93C82FB7
:1004900040E065E081E40E9424016C2F62956F705A
:1004A00081E40E940F020E942F026C2F81E40E94BF
:1004B0000F020E942F028FEC97E00197F1F700C026
:1004C0000000CF9108959FEF980F923020F49FEF96
:1004D000960F903128F08FE7860F0E9446020DC0DC
:1004E000813029F48FE7860F0E94460206C08230D1
:1004F00021F48FEB860F0E9446028FEC97E0019764
:10050000F1F700C000000895CF93C82F41E065E0E7
:1005100081E40E9424016C2F62956F7081E40E9437
:100520000F020E942F026C2F81E40E940F020E9492
:100530002F02CF910895CF93DF93EC018881882318
:1005400079F021960E9484022FEF80E792E02150FB
:1005500080409040E1F700C0000089918111F2CF06
:10056000DF91CF9108956FEF81E40E94EF0141E0A8
:1005700064E081E60E94B40041E065E081E40E940D
:10058000B4002FE788E391E0215080409040E1F7EC
:1005900000C0000082E00E9446028FE19EE40197C5
:1005A000F1F700C0000088E20E9446028FEC97E05D
:1005B0000197F1F700C0000081E00E9446028FEC35
:1005C00097E00197F1F700C000008CE00E9446021E
:1005D0008FEC97E00197F1F700C0000086E00E94E1
:1005E00046028FEC97E00197F1F700C0000082E02F
:1005F0000E9446028FEC97E00197F1F700C00000DF
:1006000008950E94B30280E690E00E949B026CE095
:1006100081E00E94630286E690E00E949B0261E016
:1006200082E00E9463028CE690E00E949B026CE0F4
:1006300082E00E94630282E790E00E949B0260E0F9
:1006400082E60E94AD0061E082E60E94AD0062E0B9
:1006500082E60E94AD0063E082E60E94AD0064E0A5
:1006600082E60E94AD00C0E0E12CF12C00E0D0E079
:100670000F2EF9E2CF2EF02D0F2EF4E6DF2EF02D07
:100680001DEC60E082E60E94B100813079F5C11175
:100690002DC0DF5F63E00E946302DC9DC12D112449
:1006A000C295CF7080E38C0F0E9484028D2FCD9D68
:1006B00080191124819F812D112486958695869518
:1006C000805D0E948402D19F812D1124869586959C
:1006D0008695880F982F990F990F890F2D2F281B1A
:1006E000822F805D0E948402C1E0CAC061E082E680
:1006F0000E94B100813079F5C111EAC00F5F6EE050
:100700000E9463020C9DC12D1124C295CF7080E31D
:100710008C0F0E948402802FCD9D80191124819F0F
:10072000812D1124869586958695805D0E94840290
:10073000019F812D1124869586958695880F982F87
:10074000990F990F890F902F981B892F805D0E9418
:100750008402C1E095C062E082E60E94B10081306F
:1007600081F5C111B0C0F39463E082E00E9463029E
:10077000FC9CC12D1124C295CF7080E38C0F0E9488
:1007800084028F2DCD9D80191124819F812D1124EC
:10079000869586958695805D0E948402F19E812DC6
:1007A0001124869586958695880F982F990F990F15
:1007B000890F2F2D281B822F805D0E948402C1E0AB
:1007C0005FC063E082E60E94B100813081F5C11113
:1007D0002EC0E3946EE082E00E946302EC9CC12D87
:1007E0001124C295CF7080E38C0F0E9484028E2D5D
:1007F000CD9D80191124819F812D11248695869588
:100800008695805D0E948402E19E812D112486954B
:1008100086958695880F982F990F990F890F9E2D91
:10082000981B892F805D0E948402C1E029C064E08A
:1008300082E60E94B100813019F561E00E946302F6
:1008400080E690E00E949B026CE081E00E946302DF
:1008500086E690E00E949B0261E082E00E946302D3
:100860008CE690E00E949B026CE082E00E946302B2
:1008700082E790E00E949B02E12CF12C00E0D0E0A6
:100880002FE788E391E0215080409040E1F700C0DD
:10089000000060E082E60E94B1008111F2CE61E0CA
:1008A00082E60E94B1008111ECCE62E082E60E94F5
:1008B000B1008111E6CE63E082E60E94B1008111B1
:1008C000E0CEC0E0DECE63E082E60E94B100AFCFB2
:1008D00062E082E60E94B100813009F072CFF3CF6E
:1008E000EE0FFF1F0590F491E02D0994F894FFCFCF
:1008F000413D30303000423D30303000433D3030FB
:080900003000443D30303000AE
:00000001FF
