S01700004763634170706C69636174696F6E312E737265635B
S11300000C9496000C94AB000C94AB000C94AB00D5
S11300100C94AB000C94AB000C94AB000C94AB00B0
S11300200C94AB000C94AB000C94AB000C94AB00A0
S11300300C94AB000C94AB000C94AB000C94AB0090
S11300400C94AB000C94AB000C94AB000C94AB0080
S11300500C94AB00BC00D500EE0007011F011F018A
S11300601F011F011F011F011F011F011F011F018C
S11300701F011F011F011F011F011F011F011F017C
S11300801F011F011F011F011F011F011F011F016C
S11300901F011F01BC00D500EE0007012C01450122
S11300A05E0177018F018F018F018F018F018F0115
S11300B08F018F018F018F018F018F018F018F01BC
S11300C08F018F018F018F018F018F018F018F01AC
S11300D08F018F018F018F018F018F012C01450149
S11300E05E0177019E01B101C401D701E901E90173
S11300F0E901E901E901E901E901E901E901E901AC
S1130100E901E901E901E901E901E901E901E9019B
S1130110E901E901E901E901E901E901E901E9018B
S1130120E901E9019E01B101C401D70111241FBEF7
S1130130CFE5D8E0DEBFCDBF10E0A0E6B0E0E4E15B
S1130140F9E002C005900D92A23BB107D9F70E94D5
S11301509A030C9488040C9400000E949001089562
S113016090E0FC01E154F109E432F10508F067C0C4
S1130170E65DFF4F0C948204413059F42AB381E0C8
S113018090E002C0880F991F6A95E2F7822B8ABB20
S113019008952AB381E090E002C0880F991F6A9500
S11301A0E2F7809582238ABB0895413059F427B33E
S11301B081E090E002C0880F991F6A95E2F7822BD4
S11301C087BB089527B381E090E002C0880F991F90
S11301D06A95E2F78095822387BB0895413059F4EC
S11301E024B381E090E002C0880F991F6A95E2F77A
S11301F0822B84BB089524B381E090E002C0880F71
S1130200991F6A95E2F78095822384BB0895413053
S113021059F421B381E090E002C0880F991F6A95D8
S1130220E2F7822B81BB089521B381E090E002C004
S1130230880F991F6A95E2F78095822381BB089500
S113024090E0FC01E154F109E432F10508F067C0E3
S1130250E25BFF4F0C948204413059F42BB381E0EC
S113026090E002C0880F991F6A95E2F7822B8BBB3E
S113027008952BB381E090E002C0880F991F6A951E
S1130280E2F7809582238BBB0895413059F428B35B
S113029081E090E002C0880F991F6A95E2F7822BF3
S11302A088BB089528B381E090E002C0880F991FAD
S11302B06A95E2F78095822388BB0895413059F40A
S11302C025B381E090E002C0880F991F6A95E2F798
S11302D0822B85BB089525B381E090E002C0880F8E
S11302E0991F6A95E2F78095822385BB0895413072
S11302F059F422B381E090E002C0880F991F6A95F7
S1130300E2F7822B82BB089522B381E090E002C021
S1130310880F991F6A95E2F78095822382BB08951E
S1130320A62F482F50E0FA01E154F109E432F10517
S113033008F04FC0EE58FF4F0C94820429B381E0BB
S113034090E00A2E02C0880F991F0A94E2F730E069
S11303508223932302C095958795AA95E2F7982F57
S113036038C026B381E090E00A2E02C0880F991F9E
S11303700A94E2F730E08223932302C0959587958F
S1130380AA95E2F7982F25C023B381E090E00A2EC6
S113039002C0880F991F0A94E2F730E08223932366
S11303A002C095958795AA95E2F7982F12C020B3BD
S11303B081E090E00A2E02C0880F991F0A94E2F7A8
S11303C030E08223932302C095958795AA95E2F79E
S11303D0982F892F0895413019F40E94200108951F
S11303E041E00E9420010895FF920F931F93CF9341
S11303F0DF93F82EC0E0D0E0062F10E0A8010C2E09
S113040002C0559547950A94E2F741706C2F8F2DE1
S11304100E94B0002196C430D10581F7DF91CF91BD
S11304201F910F91FF900895FF920F931F93CF9305
S1130430DF93F82EC4E0D0E0062F10E0A8010C2EC4
S113044002C0559547950A94E2F741706C2F8F2DA1
S11304500E94B0002196C830D10581F7DF91CF9179
S11304601F910F91FF900895FF920F931F93CF93C5
S1130470DF93F82EC0E0D0E0062F10E0A8010C2E88
S113048002C0559547950A94E2F741706C2F8F2D61
S11304900E9420012196C430D10581F7DF91CF91CC
S11304A01F910F91FF9008958EBB9FBB6DBBE29A85
S11304B0E19AE199FECF08958EBB9FBBE09A8DB37C
S11304C008956FE084E60E94F4016FE084E60E94E0
S11304D0140241E064E084E60E94EB0141E065E03F
S11304E084E60E94EB0141E066E084E60E94EB01B1
S11304F041E067E084E60E94EB0108950F931F93A7
S1130500CF93DF93CDB7DEB760970FB6F894DEBF15
S11305100FBECDBF80E1E0E6F0E0DE011196019070
S11305200D928A95E1F700E06FE084E60E943402C0
S113053040E0602F84E60E94200110E064E0610F37
S113054084E60E94AD0081110DC0E1E0F0E0EC0F03
S1130550FD1F84E0089FE00DF11D1124E10FF11D42
S1130560808107C01F5F143049F70F5F0430E1F644
S11305708FEF60960FB6F894DEBF0FBECDBFDF914C
S1130580CF911F910F91089541E064E081E60E94AC
S113059020018FE99FE00197F1F700C0000040E0DF
S11305A064E081E60E9420018FE99FE00197F1F762
S11305B000C000000895CF93C82F40E065E081E6B5
S11305C00E9420016C2F62956F7081E40E943402B6
S11305D00E94C4026C2F81E40E9434020E94C4026F
S11305E08FEC97E00197F1F700C00000CF910895D8
S11305F081E00E94DB0208959FEF980F923020F46F
S11306009FEF960F903128F08FE7860F0E94DB0250
S11306100DC0813029F48FE7860F0E94DB0206C0EB
S1130620823021F48FEB860F0E94DB028FEC97E07F
S11306300197F1F700C000000895CF93C82F41E05F
S113064065E081E60E9420016C2F62956F7081E461
S11306500E9434020E94C4026C2F81E40E9434027E
S11306600E94C402CF910895CF93DF93EC01888157
S1130670882379F021960E941D032FEF80E792E0F2
S1130680215080409040E1F700C000008991811121
S1130690F2CFDF91CF9108956FEF81E40E94F401CE
S11306A041E064E081E60E94B00041E065E081E65B
S11306B00E94B0002FE788E391E0215080409040F1
S11306C0E1F700C0000082E00E94DB028FE19EE4BB
S11306D00197F1F700C0000088E20E94DB028FEC72
S11306E097E00197F1F700C0000081E00E94DB026F
S11306F08FEC97E00197F1F700C000008EE00E94B4
S1130700DB028FEC97E00197F1F700C0000086E070
S11307100E94DB028FEC97E00197F1F700C0000024
S113072082E00E94DB028FEC97E00197F1F700C0B2
S113073000000895DF92EF92FF920F931F93CF93DF
S1130740DF9300D000D0CDB7DEB70E9461020E94D3
S11307504C0380E290E00E945C028F3F09F0BDC030
S113076080E790E00E9434030F2EF1E2EF2EF12C8B
S1130770F02D0E947E02182F8F3FD9F3682FC701F6
S11307800E945402812F0E941D032FEF84E39CE0FA
S1130790215080409040E1F700C0000069EE6E0DEA
S11307A081E00E94FC028AE20E941D03EFEFEE1A30
S11307B0FE0AF5E2EF16F104E1F660E080E290E073
S11307C00E9454028AC00E94F802EC82EB82EA8200
S11307D0E9828AE790E00E9434038E010F5F1F4F85
S11307E00F2EFCE0FF2EF02D0E947E02F801808384
S11307F08F3FD1F30E941D03FFEF24E38CE0F150FF
S113080020408040E1F700C000006F2D81E00E948D
S1130810FC028AE20E941D03F3940F5F1F4F90E1D4
S1130820F912E2CF0E94F802198181E290E00E945D
S11308305C0218131AC01A8182E290E00E945C02E2
S1130840181313C01B8183E290E00E945C0218130A
S11308500CC01C8184E290E00E945C02181305C065
S113086086E890E00E9434033FC0E0E3DE1609F11D
S113087081E990E00E943403FFEF23ED80E3F1501F
S113088020408040E1F700C000000E94F8028CE99B
S113089090E00E9434038D2D0E941D039FEFE9E632
S11308A0F8E19150E040F040E1F700C00000DA9434
S11308B08ACF81E990E00E9434032FEF89E698E122
S11308C0215080409040E1F700C000000E94F802EF
S11308D089EA90E00E94340307C00F2EF2E3DF2E72
S11308E0F02DEE24EA946FCF80E090E00F900F900B
S11308F00F900F90DF91CF911F910F91FF90EF9088
S1130900DF900895EE0FFF1F0590F491E02D0994F8
S1070910F894FFCF85
S11309143132332B3435362D3738392A25303D2FAF
S113092453657420706173733A00456E7465722064
S1130934706173733A0072696768742070617373C9
S11309440077726F6E672070617373006C656674F0
S113095420747269616C733A006E6F206D6F7265F6
S10509642E005F
S9030000FC
