S01700004763634170706C69636174696F6E312E737265635B
S11300000C9472000C948F000C948F000C948F004D
S11300100C948F000C948F000C948F000C948F0020
S11300200C948F000C948F000C942F030C948F006D
S11300300C948F000C948F000C948F000C948F0000
S11300400C948F000C948F000C948F000C948F00F0
S11300500C948F009D00B600CF00E8000001000161
S11300600001000100010001000100010001000184
S11300700001000100010001000100010001000174
S11300800001000100010001000100010001000164
S1130090000100019D00B600CF00E8000D0126011B
S11300A03F0158017001700170017001700170010D
S11300B070017001700170017001700170017001B4
S11300C070017001700170017001700170017001A4
S11300D07001700170017001700170010D01260141
S11300E03F01580111241FBECFE5D8E0DEBFCDBFCC
S11300F010E0A0E6B0E0E4EDF6E002C005900D9259
S1130100A437B107D9F720E0A4E7B0E001C01D92FD
S1130110A537B207E1F70E9487020C9468030C9498
S1130120000090E0FC01E154F109E432F10508F02B
S113013067C0E65DFF4F0C946203413059F42AB363
S113014081E090E002C0880F991F6A95E2F7822B44
S11301508ABB08952AB381E090E002C0880F991FFA
S11301606A95E2F7809582238ABB0895413059F459
S113017027B381E090E002C0880F991F6A95E2F7E7
S1130180822B87BB089527B381E090E002C0880FDB
S1130190991F6A95E2F78095822387BB08954130C1
S11301A059F424B381E090E002C0880F991F6A9546
S11301B0E2F7822B84BB089524B381E090E002C06F
S11301C0880F991F6A95E2F78095822384BB08956E
S11301D0413059F421B381E090E002C0880F991FA7
S11301E06A95E2F7822B81BB089521B381E090E008
S11301F002C0880F991F6A95E2F78095822381BB1C
S1130200089590E0FC01E154F109E432F10508F0AD
S113021067C0E25BFF4F0C946203413059F42BB387
S113022081E090E002C0880F991F6A95E2F7822B63
S11302308BBB08952BB381E090E002C0880F991F17
S11302406A95E2F7809582238BBB0895413059F477
S113025028B381E090E002C0880F991F6A95E2F705
S1130260822B88BB089528B381E090E002C0880FF8
S1130270991F6A95E2F78095822388BB08954130DF
S113028059F425B381E090E002C0880F991F6A9564
S1130290E2F7822B85BB089525B381E090E002C08C
S11302A0880F991F6A95E2F78095822385BB08958C
S11302B0413059F422B381E090E002C0880F991FC5
S11302C06A95E2F7822B82BB089522B381E090E025
S11302D002C0880F991F6A95E2F78095822382BB3A
S11302E00895FF920F931F93CF93DF93F82EC0E0EE
S11302F0D0E0062F10E0A8010C2E02C055954795BA
S11303000A94E2F741706C2F8F2D0E949100219680
S1130310C430D10581F7DF91CF911F910F91FF90E8
S11303200895FF920F931F93CF93DF93F82EC0E0AD
S1130330D0E0062F10E0A8010C2E02C05595479579
S11303400A94E2F741706C2F8F2D0E9401012196CF
S1130350C430D10581F7DF91CF911F910F91FF90A8
S1130360089541E065E083E60E9401018FE99FE082
S11303700197F1F700C0000040E065E083E60E94C9
S113038001018FE99FE00197F1F700C00000089593
S1130390CF93C82F40E064E083E60E9401016C2FF4
S11303A062956F7083E60E9491010E94B1016C2FE7
S11303B083E60E9491010E94B1018FEC97E00197BE
S11303C0F1F700C00000CF91089581E00E94C801B8
S11303D008959FEF980F923020F49FEF960F90317D
S11303E028F08FE7860F0E94C8010DC0813029F4E0
S11303F08FE7860F0E94C80106C0823021F48FEB7C
S1130400860F0E94C8018FEC97E00197F1F700C0B6
S113041000000895CF93C82F41E064E083E60E9472
S113042001016C2F62956F7083E60E9491010E9416
S1130430B1016C2F83E60E9491010E94B101CF911A
S11304400895CF93DF93EC018881882379F0219676
S11304500E940A022FEF80E792E0215080409040F2
S1130460E1F700C0000089918111F2CFDF91CF91B3
S113047008956FEF83E60E94710141E065E083E631
S11304800E94910041E064E083E60E9491002FE71E
S113049088E391E0215080409040E1F700C00000E3
S11304A082E00E94C8018FE19EE40197F1F700C049
S11304B0000088E20E94C8018FEC97E00197F1F7F1
S11304C000C0000081E00E94C8018FEC97E0019712
S11304D0F1F700C000008EE00E94C8018FEC97E0A5
S11304E00197F1F700C0000086E00E94C8018FEC7C
S11304F097E00197F1F700C0000082E00E94C80174
S11305008FEC97E00197F1F700C00000089541E0F7
S113051060E084E60E94910041E061E084E60E948C
S1130520910041E062E084E60E9491000E94390259
S113053061E080E00E9440031AE0D7E0C5E0109338
S11305406200D0936100C09360000E94E50183E6DD
S113055090E00E9421021092740041E062E084E67F
S11305600E94010115C080917400843698F01092A5
S113057074009150909362006BE081E00E94E90165
S113058080E20E940A0280916200805D0E940A0259
S1130590909162009111E7CF40E062E084E60E940E
S11305A001016BE081E00E94E90180E20E940A02FD
S11305B087E30E940A021092740041E061E084E63D
S11305C00E94010115C080917400843698F0109245
S11305D074009150909361006BE081E00E94E90106
S11305E080E20E940A0280916100805D0E940A02FA
S11305F0909161009111E7CF40E061E084E60E94B0
S113060001016CE081E00E94E90185E30E940A0295
S11306101092740041E060E084E60E94010115C07C
S113062080917400843698F01092740091509093E5
S113063060006BE081E00E94E90180E20E940A020E
S113064080916000805D0E940A0290916000911187
S1130650E7CF40E060E084E60E94010170CF1F9282
S11306600F920FB60F9211248F93809174008F5FB5
S1130670809374008F910F900FBE0F901F90189568
S113068081111FC0662319F0613061F0089583B7AA
S1130690816083BF83B7846083BF789489B78160A6
S11306A089BF089583B7886083BF8EE48CBF83B706
S11306B0816083BF83B7846083BF789489B7826085
S11306C089BF0895EE0FFF1F0590F491E02D099462
S10706D0F894FFCFC8
S11306D405070A72656D61696E696E6720313020A1
S10706E473656300D3
S9030000FC
