:100000000C942A000C943F000C943F000C943F0089
:100010000C943F000C943F000C943F000C943F0064
:100020000C943F000C943F000C943F000C943F0054
:100030000C943F000C943F000C943F000C943F0044
:100040000C943F000C943F000C943F000C943F0034
:100050000C943F0011241FBECFE5D8E0DEBFCDBF1A
:1000600010E0A0E6B0E0E0E7F1E002C005900D92FC
:10007000A836B107D9F70E9441000C94B6000C9441
:10008000000060E875E280E090E00E9455002FEFEC
:1000900082E597E0215080409040E1F700C00000E9
:1000A00080E690E00E947C00FFCFDC01CB01880F4E
:1000B000991FAA1FBB1F880F991FAA1FBB1F9C0156
:1000C000AD01220F331F441F551F220F331F441F42
:1000D000551F60E072E18AE790E00E949400215091
:1000E000310930BD29B9539A549A86E880BD0895E4
:1000F0005D9BFECF8CB90895CF93DF93EC0188818F
:10010000882379F021960E9478002FEF80E792E013
:10011000215080409040E1F700C00000899181119A
:10012000F2CFDF91CF910895A1E21A2EAA1BBB1B3B
:10013000FD010DC0AA1FBB1FEE1FFF1FA217B307B3
:10014000E407F50720F0A21BB30BE40BF50B661FC9
:10015000771F881F991F1A9469F76095709580958D
:1001600090959B01AC01BD01CF010895F894FFCF9C
:08017000736861646F6F000009
:00000001FF
