S01700004763634170706C69636174696F6E312E737265635B
S11300000C942A000C9434000C9434000C943400A6
S11300100C9434000C9434000C9434000C9434008C
S11300200C9434000C9434000C9434000C9434007C
S11300300C9434000C9434000C9434000C9434006C
S11300400C9434000C9434000C9434000C9434005C
S11300500C94340011241FBECFE5D8E0DEBFCDBF21
S11300600E9444000C944F000C9400003E9A379A6E
S1130070329A319A0895369A349BFECF349A84B1D9
S113008025B190E0922B08958FEF81BBA09AA19A9D
S11300900E9436000E943B0082BB95BBFBCFF894C4
S10500A0FFCF8C
S9030000FC
