:100000000C942A000C9434000C9434000C943400AA
:100010000C9434000C9434000C9434000C94340090
:100020000C9434000C9434000C9434000C94340080
:100030000C9434000C9434000C9434000C94340070
:100040000C9434000C9434000C9434000C94340060
:100050000C94340011241FBECFE5D8E0DEBFCDBF25
:100060000E943E000C9444000C9400008EBB9FBB89
:100070006DBBE29AE19AE199FECF089560E183E6D3
:0C00800090E00E943600FFCFF894FFCF04
:00000001FF
