:100000000C942A000C9450000C946A000C948B0001
:100010000C9434000C9434000C9434000C94340090
:100020000C9434000C9434000C9434000C94340080
:100030000C9434000C9434000C9434000C94340070
:100040000C9434000C9434000C9434000C94340060
:100050000C94340011241FBECFE5D8E0DEBFCDBF25
:100060000E9436000C94A6000C94000078948BB784
:1000700080648BBF8BB780688BBF8BB780628BBF70
:1000800085B7836085BF85B78C6085BF84B7806482
:1000900084BFD09AD19AD29AD898D998DA98FCCFBE
:1000A0001F920F920FB60F9211242F938F939F934D
:1000B000D89A2FEF83ED90E3215080409040E1F7F4
:1000C00000C000009F918F912F910F900FBE0F9055
:1000D0001F9018951F920F920FB60F9211242F9315
:1000E0008F939F9378948BB78F7D8BBFD99A2FEF87
:1000F00083ED90E3215080409040E1F700C0000084
:100100008BB780628BBF9F918F912F910F900FBE05
:100110000F901F9018951F920F920FB60F921124F7
:100120002F938F939F937894DA9A2FEF83ED90E338
:10013000215080409040E1F700C000009F918F91D6
:100140002F910F900FBE0F901F901895F894FFCF2E
:00000001FF
