:100000000C942A000C9450000C9479000C94340049
:100010000C9434000C9434000C9434000C94340090
:100020000C9434000C9434000C9434000C94340080
:100030000C9434000C9434000C9434000C94340070
:100040000C9434000C9434000C9434000C94340060
:100050000C94340011241FBECFE5D8E0DEBFCDBF25
:100060000E9436000C9483000C9400008F9A81B398
:1000700081BB78948BB780648BBF85B7836085BF65
:100080008E9A8D9A8BB780688BBF85B78C6085BF41
:1000900097980AB607FE02C0969AFACF9698F8CFBC
:1000A0001F920F920FB60F9211242F938F939F934D
:1000B000979A2FEF83ED90E3215080409040E1F735
:1000C00000C000000AB607FE02C0969A01C09698CA
:1000D0002FEF81E19AE7215080409040E1F700C086
:1000E00000009F918F912F910F900FBE0F901F9046
:1000F00018951F920F920FB60F9211240F900FBEFA
:0A0100000F901F901895F894FFCFA0
:00000001FF
