:100000000C9472000C9487000C9487000C94870069
:100010000C9487000C9487000C9487000C94870044
:100020000C9487000C9487000C9487000C94870034
:100030000C9487000C9487000C9487000C94870024
:100040000C9487000C9487000C9487000C94870014
:100050000C9487009500AE00C700E000F800F8009F
:10006000F800F800F800F800F800F800F800F800D0
:10007000F800F800F800F800F800F800F800F800C0
:10008000F800F800F800F800F800F800F800F800B0
:10009000F800F8009500AE00C700E00005011E0161
:1000A0003701500168016801680168016801680151
:1000B00068016801680168016801680168016801F8
:1000C00068016801680168016801680168016801E8
:1000D00068016801680168016801680105011E0185
:1000E0003701500111241FBECFE5D8E0DEBFCDBFE0
:1000F00010E0A0E6B0E0EAEFF4E002C005900D9257
:10010000A037B107D9F70E944D020C947B020C94E2
:10011000000090E0FC01E154F109E432F10508F03F
:1001200067C0E65DFF4F0C947502413059F42AB365
:1001300081E090E002C0880F991F6A95E2F7822B58
:100140008ABB08952AB381E090E002C0880F991F0E
:100150006A95E2F7809582238ABB0895413059F46D
:1001600027B381E090E002C0880F991F6A95E2F7FB
:10017000822B87BB089527B381E090E002C0880FEF
:10018000991F6A95E2F78095822387BB08954130D5
:1001900059F424B381E090E002C0880F991F6A955A
:1001A000E2F7822B84BB089524B381E090E002C083
:1001B000880F991F6A95E2F78095822384BB089582
:1001C000413059F421B381E090E002C0880F991FBB
:1001D0006A95E2F7822B81BB089521B381E090E01C
:1001E00002C0880F991F6A95E2F78095822381BB30
:1001F000089590E0FC01E154F109E432F10508F0C2
:1002000067C0E25BFF4F0C947502413059F42BB389
:1002100081E090E002C0880F991F6A95E2F7822B77
:100220008BBB08952BB381E090E002C0880F991F2B
:100230006A95E2F7809582238BBB0895413059F48B
:1002400028B381E090E002C0880F991F6A95E2F719
:10025000822B88BB089528B381E090E002C0880F0C
:10026000991F6A95E2F78095822388BB08954130F3
:1002700059F425B381E090E002C0880F991F6A9578
:10028000E2F7822B85BB089525B381E090E002C0A0
:10029000880F991F6A95E2F78095822385BB0895A0
:1002A000413059F422B381E090E002C0880F991FD9
:1002B0006A95E2F7822B82BB089522B381E090E039
:1002C00002C0880F991F6A95E2F78095822382BB4E
:1002D0000895CF93DF93D82FC0E041E06C2F8D2F8E
:1002E0000E948900CF5FC430C1F7DF91CF9108959C
:1002F000FF920F931F93CF93DF93F82EC0E0D0E0CF
:10030000062F10E0A8010C2E02C0559547950A94BF
:10031000E2F741706C2F8F2D0E94F9002196C430B6
:10032000D10581F7DF91CF911F910F91FF90089533
:1003300041E061E083E60E94F9008FE99FE00197C8
:10034000F1F700C0000040E061E083E60E94F900A0
:100350008FE99FE00197F1F700C000000895CF9367
:10036000C82F40E060E083E60E94F9006C2F6295A0
:100370006F7084E60E9478010E9498016C2F84E6D9
:100380000E9478010E9498018FEC97E00197F1F7A5
:1003900000C00000CF91089581E00E94AF01089550
:1003A000CF93C82F41E060E083E60E94F9006C2FF4
:1003B00062956F7084E60E9478010E9498016C2F0C
:1003C00084E60E9478010E949801CF910895CF930E
:1003D000DF93EC018881882379F021960E94D00177
:1003E0002FEF80E792E0215080409040E1F700C07D
:1003F000000089918111F2CFDF91CF9108956FEFC5
:1004000084E60E94690141E061E083E60E94890080
:1004100041E060E083E60E9489002FE788E391E0F5
:10042000215080409040E1F700C0000082E00E942F
:10043000AF018FE19EE40197F1F700C0000088E270
:100440000E94AF018FEC97E00197F1F700C0000028
:1004500081E00E94AF018FEC97E00197F1F700C0B7
:1004600000008EE00E94AF018FEC97E00197F1F75A
:1004700000C0000086E00E94AF018FEC97E001977A
:10048000F1F700C0000082E00E94AF018FEC97E01E
:100490000197F1F700C0000008950E94FF0180E677
:1004A00090E00E94E7012FEF89E698E1215080401B
:1004B0009040E1F700C000000E94CC012FEF89E6D8
:1004C00098E1215080409040E1F700C0000087E6AD
:1004D00090E00E94E7012FEF83ED90E321508040F0
:1004E0009040E1F700C00000E7CFEE0FFF1F05903E
:0A04F000F491E02D0994F894FFCF79
:1004FA00736861646F6F0074657374203A29000031
:00000001FF
