S01700004763634170706C69636174696F6E312E737265635B
S11300000C9472000C9484000C9484000C9484006E
S11300100C9484000C9484000C9484000C9484004C
S11300200C9484000C9484000C9484000C9484003C
S11300300C9484000C9484000C9484000C9484002C
S11300400C9484000C9484000C9484000C9484001C
S11300500C9484009200AB00C400DD00F500F500B0
S1130060F500F500F500F500F500F500F500F500E4
S1130070F500F500F500F500F500F500F500F500D4
S1130080F500F500F500F500F500F500F500F500C4
S1130090F500F5009200AB00C400DD0002011B0175
S11300A034014D0165016501650165016501650165
S11300B0650165016501650165016501650165010C
S11300C065016501650165016501650165016501FC
S11300D065016501650165016501650102011B0199
S11300E034014D0111241FBECFE5D8E0DEBFCDBFE2
S11300F020E0A0E6B0E001C01D92A036B207E1F70F
S11301000E9455020C9465020C94000090E0FC01DE
S1130110E154F109E432F10508F067C0E65DFF4FF0
S11301200C945F02413059F42AB381E090E002C09C
S1130130880F991F6A95E2F7822B8ABB08952AB328
S113014081E090E002C0880F991F6A95E2F78095DC
S113015082238ABB0895413059F427B381E090E0AB
S113016002C0880F991F6A95E2F7822B87BB089516
S113017027B381E090E002C0880F991F6A95E2F7E7
S11301808095822387BB0895413059F424B381E0DC
S113019090E002C0880F991F6A95E2F7822B84BB16
S11301A0089524B381E090E002C0880F991F6A95F6
S11301B0E2F78095822384BB0895413059F421B33A
S11301C081E090E002C0880F991F6A95E2F7822BC4
S11301D081BB089521B381E090E002C0880F991F8C
S11301E06A95E2F78095822381BB089590E0FC0133
S11301F0E154F109E432F10508F067C0E25BFF4F16
S11302000C945F02413059F42BB381E090E002C0BA
S1130210880F991F6A95E2F7822B8BBB08952BB345
S113022081E090E002C0880F991F6A95E2F78095FB
S113023082238BBB0895413059F428B381E090E0C8
S113024002C0880F991F6A95E2F7822B88BB089534
S113025028B381E090E002C0880F991F6A95E2F705
S11302608095822388BB0895413059F425B381E0F9
S113027090E002C0880F991F6A95E2F7822B85BB34
S1130280089525B381E090E002C0880F991F6A9514
S1130290E2F78095822385BB0895413059F422B357
S11302A081E090E002C0880F991F6A95E2F7822BE3
S11302B082BB089522B381E090E002C0880F991FA9
S11302C06A95E2F78095822382BB0895FF920F938B
S11302D01F93CF93DF93F82EC0E0D0E0062F10E0F9
S11302E0A8010C2E02C0559547950A94E2F7417077
S11302F06C2F8F2D0E9486002196C430D10581F782
S1130300DF91CF911F910F91FF900895FF920F936A
S11303101F93CF93DF93F82EC0E0D0E0062F10E0B8
S1130320A8010C2E02C0559547950A94E2F7417036
S11303306C2F8F2D0E94F6002196C430D10581F7D1
S1130340DF91CF911F910F91FF90089582B9089585
S113035084EC86BF06B607FEFDCF81B1887F803668
S1130360E1F784EC86BF06B607FEFDCF81B1887F36
S11303708038E1F783B1089541E064E084E40E94A9
S1130380F6008FE99FE00197F1F700C0000040E01C
S113039064E084E40E94F6008FE99FE00197F1F79E
S11303A000C000000895CF93C82F40E065E084E4C6
S11303B00E94F6006C2F62956F7084E40E9486019F
S11303C00E94BC016C2F84E40E9486010E94BC013F
S11303D08FEC97E00197F1F700C00000CF910895EA
S11303E0CF93C82F41E065E084E40E94F6006C2FAF
S11303F062956F7084E40E9486010E94BC016C2F98
S113040084E40E9486010E94BC01CF9108956FEF9D
S113041084E40E94660141E064E084E40E94860072
S113042041E065E084E40E9486002FE788E391E0E0
S1130430215080409040E1F700C0000082E00E941B
S1130440D3018FE19EE40197F1F700C0000088E238
S11304500E94D3018FEC97E00197F1F700C00000F0
S113046081E00E94D3018FEC97E00197F1F700C07F
S113047000008EE00E94D3018FEC97E00197F1F722
S113048000C0000086E00E94D3018FEC97E0019742
S1130490F1F700C0000082E00E94D3018FEC97E0E6
S11304A00197F1F700C00000089584E00E94A601BE
S11304B00E9407020E94A8010E94F001FBCFEE0FE8
S11104C0FF1F0590F491E02D0994F894FFCFEE
S9030000FC
