:100000000C942A000C943F000C943F000C943F0089
:100010000C943F000C943F000C943F000C943F0064
:100020000C943F000C943F000C943F000C943F0054
:100030000C943F000C943F000C943F000C943F0044
:100040000C943F000C943F000C943F000C943F0034
:100050000C943F0011241FBECFE5D8E0DEBFCDBF1A
:1000600010E0A0E6B0E0E0EBF1E002C005900D92F8
:10007000A636B107D9F70E947C000C94D6000C94E8
:1000800000009B01AC0160E072E18AE790E00E9411
:10009000B400DA01C9014097A109B109B695A79545
:1000A0009795879580B911B8089584EA86BF06B6FA
:1000B00007FEFDCF81B1887F8830E1F7089584E99C
:1000C00086BF089582B9089583B984E886BF06B6CD
:1000D00007FEFDCF611104C081B1887F8831E1F74F
:1000E000089583B984E886BF06B607FEFDCF81B1C7
:1000F000887F8832E1F708950F931F93CF93DF93A2
:1001000060E573EC80E090E00E94410088E00E948E
:1001100062002FEF89E698E1215080409040E1F79E
:1001200000C00000C0E6D0E006E610E02FEF80E758
:1001300092E0215080409040E1F700C000000E9412
:10014000550060E084E00E94640089910E94710083
:100150000E945F00C017D10749F780E090E0DF916F
:10016000CF911F910F910895A1E21A2EAA1BBB1BDC
:10017000FD010DC0AA1FBB1FEE1FFF1FA217B30773
:10018000E407F50720F0A21BB30BE40BF50B661F89
:10019000771F881F991F1A9469F76095709580954D
:1001A00090959B01AC01BD01CF010895F894FFCF5C
:0601B00074657374000089
:00000001FF
