S01700004763634170706C69636174696F6E312E737265635B
S11300000C9496000C94B3000C94B3000C94B300BD
S11300100C94B3000C94B3000C94B3000C94B30090
S11300200C94B3000C94B3000C94D1040C94B3005E
S11300300C94B3000C94B3000C94B3000C94B30070
S11300400C94B3000C94B3000C94B3000C94B30060
S11300500C94B300C400DD00F6000F012701270152
S1130060270127012701270127012701270127014C
S1130070270127012701270127012701270127013C
S1130080270127012701270127012701270127012C
S113009027012701C400DD00F6000F0134014D01E2
S11300A066017F01970197019701970197019701D5
S11300B0970197019701970197019701970197017C
S11300C0970197019701970197019701970197016C
S11300D097019701970197019701970134014D0109
S11300E066017F01A601B901CC01DF01F101F10133
S11300F0F101F101F101F101F101F101F101F1016C
S1130100F101F101F101F101F101F101F101F1015B
S1130110F101F101F101F101F101F101F101F1014B
S1130120F101F101A601B901CC01DF0111241FBEC7
S1130130CFE5D8E0DEBFCDBF10E0A0E6B0E0E4E25A
S1130140FCE002C005900D92AA3BB107D9F720E06C
S1130150AAEBB0E001C01D92AE3BB207E1F70E94EA
S113016099030C9410060C9400000E9498010895C1
S113017090E0FC01E154F109E432F10508F067C0B4
S1130180E65DFF4F0C943705413059F42AB381E002
S113019090E002C0880F991F6A95E2F7822B8ABB10
S11301A008952AB381E090E002C0880F991F6A95F0
S11301B0E2F7809582238ABB0895413059F427B32E
S11301C081E090E002C0880F991F6A95E2F7822BC4
S11301D087BB089527B381E090E002C0880F991F80
S11301E06A95E2F78095822387BB0895413059F4DC
S11301F024B381E090E002C0880F991F6A95E2F76A
S1130200822B84BB089524B381E090E002C0880F60
S1130210991F6A95E2F78095822384BB0895413043
S113022059F421B381E090E002C0880F991F6A95C8
S1130230E2F7822B81BB089521B381E090E002C0F4
S1130240880F991F6A95E2F78095822381BB0895F0
S113025090E0FC01E154F109E432F10508F067C0D3
S1130260E25BFF4F0C943705413059F42BB381E026
S113027090E002C0880F991F6A95E2F7822B8BBB2E
S113028008952BB381E090E002C0880F991F6A950E
S1130290E2F7809582238BBB0895413059F428B34B
S11302A081E090E002C0880F991F6A95E2F7822BE3
S11302B088BB089528B381E090E002C0880F991F9D
S11302C06A95E2F78095822388BB0895413059F4FA
S11302D025B381E090E002C0880F991F6A95E2F788
S11302E0822B85BB089525B381E090E002C0880F7E
S11302F0991F6A95E2F78095822385BB0895413062
S113030059F422B381E090E002C0880F991F6A95E6
S1130310E2F7822B82BB089522B381E090E002C011
S1130320880F991F6A95E2F78095822382BB08950E
S1130330A62F482F50E0FA01E154F109E432F10507
S113034008F04FC0EE58FF4F0C94370529B381E0F5
S113035090E00A2E02C0880F991F0A94E2F730E059
S11303608223932302C095958795AA95E2F7982F47
S113037038C026B381E090E00A2E02C0880F991F8E
S11303800A94E2F730E08223932302C0959587957F
S1130390AA95E2F7982F25C023B381E090E00A2EB6
S11303A002C0880F991F0A94E2F730E08223932356
S11303B002C095958795AA95E2F7982F12C020B3AD
S11303C081E090E00A2E02C0880F991F0A94E2F798
S11303D030E08223932302C095958795AA95E2F78E
S11303E0982F892F0895413019F40E942801089507
S11303F041E00E9428010895FF920F931F93CF9329
S1130400DF93F82EC0E0D0E0062F10E0A8010C2EF8
S113041002C0559547950A94E2F741706C2F8F2DD1
S11304200E94B8002196C430D10581F7DF91CF91A5
S11304301F910F91FF900895FF920F931F93CF93F5
S1130440DF93F82EC4E0D0E0062F10E0A8010C2EB4
S113045002C0559547950A94E2F741706C2F8F2D91
S11304600E94B8002196C830D10581F7DF91CF9161
S11304701F910F91FF900895FF920F931F93CF93B5
S1130480DF93F82EC0E0D0E0062F10E0A8010C2E78
S113049002C0559547950A94E2F741706C2F8F2D51
S11304A00E9428012196C430D10581F7DF91CF91B4
S11304B01F910F91FF9008956FE084E60E94FC0164
S11304C06FE084E60E941C0241E064E084E60E943E
S11304D0F30141E065E084E60E94F30141E066E057
S11304E084E60E94F30141E067E084E60E94F301A0
S11304F008950F931F93CF93DF93CDB7DEB7609723
S11305000FB6F894DEBF0FBECDBF80E1E4E6F0E0A5
S1130510DE01119601900D928A95E1F700E06FE0FB
S113052084E60E943C0240E0602F84E60E94280199
S113053010E064E0610F84E60E94B50081110DC0F3
S1130540E1E0F0E0EC0FFD1F84E0089FE00DF11DF9
S11305501124E10FF11D808107C01F5F143049F79A
S11305600F5F0430E1F68FEF60960FB6F894DEBFAC
S11305700FBECDBFDF91CF911F910F91089541E040
S113058065E083E60E9428018FE99FE00197F1F777
S113059000C0000040E065E083E60E9428018FE986
S11305A09FE00197F1F700C000000895CF93C82F92
S11305B040E064E083E60E9428016C2F62956F702E
S11305C083E60E943C020E94BF026C2F83E60E94D5
S11305D03C020E94BF028FEC97E00197F1F700C044
S11305E00000CF91089581E00E94D60208959FEF04
S11305F0980F923020F49FEF960F903128F08FE7F8
S1130600860F0E94D6020DC0813029F48FE7860F31
S11306100E94D60206C0823021F48FEB860F0E941E
S1130620D6028FEC97E00197F1F700C0000008951F
S113063080EC0E94D6020895CF93C82F41E064E075
S113064083E60E9428016C2F62956F7083E60E94F6
S11306503C020E94BF026C2F83E60E943C020E946F
S1130660BF02CF910895CF93DF93EC018881882353
S113067079F021960E941C032FEF80E792E021502D
S113068080409040E1F700C0000089918111F2CFD1
S1130690DF91CF9108956FEF83E60E94FC0141E062
S11306A065E083E60E94B80041E064E083E60E94CE
S11306B0B8002FE788E391E0215080409040E1F7B3
S11306C000C0000082E00E94D6028FE19EE4019700
S11306D0F1F700C0000088E20E94D6028FEC97E098
S11306E00197F1F700C0000081E00E94D6028FEC70
S11306F097E00197F1F700C000008EE00E94D60257
S11307008FEC97E00197F1F700C0000086E00E94AB
S1130710D6028FEC97E00197F1F700C0000082E069
S11307200E94D6028FEC97E00197F1F700C0000019
S113073008950E944B030E945C0261E080E00E94E5
S113074001050F2EF4E66F2E712CF02D0F2EFDEC0B
S1130750AF2EF02D0F2EFCE4CF2EF4E0DF2EF02D83
S1130760EE24E394F12C0E94F3020E949D05B30150
S11307700E942305C82F982E0E949D05B3010E9454
S11307802305B82E99279C012C0F311DE90124362D
S113079031054CF79A9C812C1124182D1695169529
S11307A0169580E3810F0E941C033FEF80E792E0DF
S11307B0315080409040E1F700C00000812E880C49
S11307C0882D880F880F880E892D8819805D0E94D6
S11307D01C032FEF30E782E0215030408040E1F7E6
S11307E000C000008BE20E941C039FEF20E732E070
S11307F0915020403040E1F700C00000BA9C912C99
S11308001124192D16951695169580E3810F0E94D3
S11308101C038FEF90E722E0815090402040E1F7E5
S113082000C00000912E990C892D880F880F980E16
S11308308B2D8919805D0E941C033FEF80E792E0B5
S1130840315080409040E1F700C0000084E790E020
S11308500E9433031092BD001092BC001092BB00A2
S11308601092BA000E947902082F8F3F39F48091C8
S1130870BA009091BB00892BA9F310C067E081E016
S11308800E94F702802F0E941C032FE73AE186E0C2
S1130890215030408040E1F700C000000E947902FE
S11308A0182F8F3F31F48091BA009091BB00892BAF
S11308B0A9F30F3F09F46DC0812F0E941C03F0922D
S11308C0BB00E092BA009FE72AE136E09150204055
S11308D03040E1F700C00000802F880F8056B82E0A
S11308E0BB0CBB0C8B0D8053810F90E0C817D9074C
S11308F059F40E94F302D092BD00C092BC0087E775
S113090090E00E9433031DC01F3F59F00E94F30280
S1130910D092BD00C092BC0087E890E00E943303EF
S113092010C08091BA009091BB00019751F40E94CD
S1130930F30287E990E00E94330361E181E00E94C1
S1130940F7028FEF93ED20E3815090402040E1F7D0
S113095000C000000E94F30284EA90E00E94330386
S11309603FEF83ED90E3315080409040E1F700C0C9
S113097000000E94180380EB90E00E9433032FEFE5
S113098033ED80E3215030408040E1F700C00000A7
S1130990EACE86EE810F90E0C817D90709F0B4CFEC
S11309A0A8CF1F920F920FB60F9211242F938F93FB
S11309B09F938091BC009091BD0001969093BD00DF
S11309C08093BC008091BC009091BD00883E934010
S11309D081F48091BA009091BB00892B51F410925C
S11309E0BD001092BC0081E090E09093BB00809326
S11309F0BA009F918F912F910F900FBE0F901F906F
S1130A00189581111FC0662319F0613061F00895B3
S1130A1083B7816083BF83B7846083BF789489B7C9
S1130A20816089BF089583B7886083BF8EE48CBFDB
S1130A3083B7816083BF83B7846083BF789489B7A9
S1130A40826089BF089597FB072E16F4009407D09F
S1130A5077FD09D00E943D0507FC05D03EF4909532
S1130A6081959F4F0895709561957F4F0895EE0F7E
S1130A70FF1F0590F491E02D0994AA1BBB1B51E1C3
S1130A8007C0AA1FBB1FA617B70710F0A61BB70BFA
S1130A90881F991F5A95A9F780959095BC01CD019F
S1130AA008958F929F92AF92BF92CF92DF92EF926E
S1130AB0FF92CF93DF93EC01688179818A819B81D6
S1130AC0611571058105910521F464E279ED8BE5E9
S1130AD097E02DE133EF41E050E00E94AD0549017C
S1130AE05A019B01AC01A7EAB1E40E94CC056B0159
S1130AF07C01ACEEB4EFA50194010E94DA05DC019F
S1130B00CB018C0D9D1DAE1DBF1DB7FF03C001970A
S1130B10A109B04888839983AA83BB839F77DF9117
S1130B20CF91FF90EF90DF90CF90BF90AF909F90C8
S1130B308F9008950E945105089580E690E00E94E8
S1130B4051050895A0E0B0E08093600090936100A7
S1130B50A0936200B09363000895052E97FB1EF4E2
S1130B6000940E94C40557FD07D00E94DF0507FCCE
S1130B7003D04EF40C94C4055095409530952195BE
S1130B803F4F4F4F5F4F08959095809570956195B5
S1130B907F4F8F4F9F4F08950E940106A59F900D90
S1130BA0B49F900DA49F800D911D11240895B7FF4B
S1130BB00C94CC050E94CC05821B930B0895A1E2F2
S1130BC01A2EAA1BBB1BFD010DC0AA1FBB1FEE1FC3
S1130BD0FF1FA217B307E407F50720F0A21BB30B0E
S1130BE0E40BF50B661F771F881F991F1A9469F78A
S1130BF060957095809590959B01AC01BD01CF01E6
S1130C000895A29FB001B39FC001A39F700D811DE1
S1130C101124911DB29F700D811D1124911D089501
S1070C20F894FFCF72
S1130C24010000003132332B3435362D3738392A5C
S1130C3425303D2F3D3F00526967687420416E732F
S1130C44776572203A440057726F6E6720416E7361
S1130C54776572203A280054696D65204F757420B5
S1130C643E5F3C00506C617920416761696E3F00CE
S10D0C744C6574277320474F2100DC
S9030000FC
