:100000000C942A000C943F000C943F000C943F0089
:100010000C943F000C943F000C943F000C943F0064
:100020000C943F000C943F000C943F000C943F0054
:100030000C943F000C943F000C943F000C943F0044
:100040000C943F000C943F000C943F000C943F0034
:100050000C943F0011241FBECFE5D8E0DEBFCDBF1A
:1000600010E0A0E6B0E0E2E0F2E002C005900D9200
:10007000A836B107D9F70E9485000C94FF000C94B4
:1000800000009B01AC0160E072E18AE790E00E9411
:10009000DD00DA01C9014097A109B109B695A7951C
:1000A0009795879580B911B8089582B9089584EA23
:1000B00086BF06B607FEFDCF81B1887F8830E1F7A5
:1000C000089584EA86BF06B607FEFDCF81B1887F1A
:1000D0008031E1F7089584E986BF0895862B83B9BE
:1000E00084E886BF06B607FEFDCF81B1887F8831E0
:1000F000E1F7089583B984E886BF06B607FEFDCF11
:1001000081B1887F8832E1F708950F931F93CF93D1
:10011000DF93CDB7DEB727970FB6F894DEBF0FBEDB
:10012000CDBF60E573EC80E090E00E94410082E08A
:100130000E9455002FEF84E39CE0215080409040C6
:10014000E1F700C0000087E0E0E6F0E0DE01119694
:1001500001900D928A95E1F70E94570019811123B1
:10016000E9F000E060E084E00E946E00812F0E94D0
:100170007A002FEF81EE94E0215080409040E1F72B
:1001800000C000000E9461000F5FE1E0F0E0EC0FB2
:10019000FD1FE00FF11D10811111E4CF0E946B00D3
:1001A00080E090E027960FB6F894DEBF0FBECDBF7B
:1001B000DF91CF911F910F910895A1E21A2EAA1BF2
:1001C000BB1BFD010DC0AA1FBB1FEE1FFF1FA21707
:1001D000B307E407F50720F0A21BB30BE40BF50B04
:1001E000661F771F881F991F1A9469F7609570958D
:1001F000809590959B01AC01BD01CF010895F894C5
:02020000FFCF2E
:08020200736861646F6F000076
:00000001FF
