S01700004763634170706C69636174696F6E312E737265635B
S11300000C9472000C9487000C9487000C94870065
S11300100C9487000C9487000C9487000C94870040
S11300200C9487000C9487000C9487000C94870030
S11300300C9487000C9487000C9487000C94870020
S11300400C9487000C9487000C9487000C94870010
S11300500C9487009500AE00C700E000F800F8009B
S1130060F800F800F800F800F800F800F800F800CC
S1130070F800F800F800F800F800F800F800F800BC
S1130080F800F800F800F800F800F800F800F800AC
S1130090F800F8009500AE00C700E00005011E015D
S11300A0370150016801680168016801680168014D
S11300B068016801680168016801680168016801F4
S11300C068016801680168016801680168016801E4
S11300D068016801680168016801680105011E0181
S11300E03701500111241FBECFE5D8E0DEBFCDBFDC
S11300F010E0A0E6B0E0E2E9F5E002C005900D9260
S1130100A836B107D9F70E945E020C94C7020C947A
S1130110000090E0FC01E154F109E432F10508F03B
S113012067C0E65DFF4F0C94C102413059F42AB315
S113013081E090E002C0880F991F6A95E2F7822B54
S11301408ABB08952AB381E090E002C0880F991F0A
S11301506A95E2F7809582238ABB0895413059F469
S113016027B381E090E002C0880F991F6A95E2F7F7
S1130170822B87BB089527B381E090E002C0880FEB
S1130180991F6A95E2F78095822387BB08954130D1
S113019059F424B381E090E002C0880F991F6A9556
S11301A0E2F7822B84BB089524B381E090E002C07F
S11301B0880F991F6A95E2F78095822384BB08957E
S11301C0413059F421B381E090E002C0880F991FB7
S11301D06A95E2F7822B81BB089521B381E090E018
S11301E002C0880F991F6A95E2F78095822381BB2C
S11301F0089590E0FC01E154F109E432F10508F0BE
S113020067C0E25BFF4F0C94C102413059F42BB339
S113021081E090E002C0880F991F6A95E2F7822B73
S11302208BBB08952BB381E090E002C0880F991F27
S11302306A95E2F7809582238BBB0895413059F487
S113024028B381E090E002C0880F991F6A95E2F715
S1130250822B88BB089528B381E090E002C0880F08
S1130260991F6A95E2F78095822388BB08954130EF
S113027059F425B381E090E002C0880F991F6A9574
S1130280E2F7822B85BB089525B381E090E002C09C
S1130290880F991F6A95E2F78095822385BB08959C
S11302A0413059F422B381E090E002C0880F991FD5
S11302B06A95E2F7822B82BB089522B381E090E035
S11302C002C0880F991F6A95E2F78095822382BB4A
S11302D00895FF920F931F93CF93DF93F82EC0E0FE
S11302E0D0E0062F10E0A8010C2E02C055954795CA
S11302F00A94E2F741706C2F8F2D0E948900219699
S1130300C430D10581F7DF91CF911F910F91FF90F8
S11303100895FF920F931F93CF93DF93F82EC0E0BD
S1130320D0E0062F10E0A8010C2E02C05595479589
S11303300A94E2F741706C2F8F2D0E94F9002196E8
S1130340C430D10581F7DF91CF911F910F91FF90B8
S1130350089541E064E083E60E94F9008FE99FE09C
S11303600197F1F700C0000040E064E083E60E94DA
S1130370F9008FE99FE00197F1F700C000000895AC
S1130380CF93C82F40E065E083E60E94F9006C2F0C
S113039062956F7083E60E9489010E94A9016C2F07
S11303A083E60E9489010E94A9018FEC97E00197DE
S11303B0F1F700C00000CF91089580EC0E94C001C5
S11303C00895CF93C82F41E065E083E60E94F900C9
S11303D06C2F62956F7083E60E9489010E94A901C7
S11303E06C2F83E60E9489010E94A901CF91089590
S11303F0CF93DF93EC018881882379F021960E94C2
S1130400E1012FEF80E792E0215080409040E1F736
S113041000C0000089918111F2CFDF91CF9108953E
S11304206FEF83E60E94690141E064E083E60E9485
S1130430890041E065E083E60E9489002FE788E3B4
S113044091E0215080409040E1F700C0000082E03C
S11304500E94C0018FE19EE40197F1F700C0000003
S113046088E20E94C0018FEC97E00197F1F700C089
S1130470000081E00E94C0018FEC97E00197F1F742
S113048000C000008EE00E94C0018FEC97E001974D
S1130490F1F700C0000086E00E94C0018FEC97E0F5
S11304A00197F1F700C0000082E00E94C0018FECC8
S11304B097E00197F1F700C00000089560E875E245
S11304C080E090E00E9478020E94100280E690E0B2
S11304D00E94F8010E94DD010E949B0290E00E94AC
S11304E0E1018FE19EE40197F1F700C00000F4CF31
S11304F0DC01CB01880F991FAA1FBB1F880F991F0E
S1130500AA1FBB1F9C01AD01220F331F441F551F9F
S1130510220F331F441F551F60E072E18AE790E009
S11305200E949F022150310930BD29B9539A549A2F
S113053086E880BD08955F9BFECF8CB10895A1E24B
S11305401A2EAA1BBB1BFD010DC0AA1FBB1FEE1F49
S1130550FF1FA217B307E407F50720F0A21BB30B94
S1130560E40BF50B661F771F881F991F1A9469F710
S113057060957095809590959B01AC01BD01CF016C
S11305800895EE0FFF1F0590F491E02D0994F8945F
S1050590FFCF97
S10B05924849205941203A00B8
S9030000FC
