:100000000C9472000C947C000C947C000C947C008A
:100010000C947C000C947C000C947C000C947C0070
:100020000C947C000C947C000C947C000C947C0060
:100030000C947C000C947C000C947C000C947C0050
:100040000C947C000C947C000C947C000C947C0040
:100050000C947C008A00A300BC00D500ED00ED00EC
:10006000ED00ED00ED00ED00ED00ED00ED00ED0028
:10007000ED00ED00ED00ED00ED00ED00ED00ED0018
:10008000ED00ED00ED00ED00ED00ED00ED00ED0008
:10009000ED00ED008A00A300BC00D500FA001301BA
:1000A0002C0145015D015D015D015D015D015D01A9
:1000B0005D015D015D015D015D015D015D015D0150
:1000C0005D015D015D015D015D015D015D015D0140
:1000D0005D015D015D015D015D015D01FA001301DE
:1000E0002C01450111241FBECFE5D8E0DEBFCDBFF6
:1000F0000E9461020C9499020C94000090E0FC01B3
:10010000E154F109E432F10508F067C0E65DFF4F04
:100110000C949302413059F42AB381E090E002C07C
:10012000880F991F6A95E2F7822B8ABB08952AB33C
:1001300081E090E002C0880F991F6A95E2F78095F0
:1001400082238ABB0895413059F427B381E090E0BF
:1001500002C0880F991F6A95E2F7822B87BB08952A
:1001600027B381E090E002C0880F991F6A95E2F7FB
:100170008095822387BB0895413059F424B381E0F0
:1001800090E002C0880F991F6A95E2F7822B84BB2A
:10019000089524B381E090E002C0880F991F6A950A
:1001A000E2F78095822384BB0895413059F421B34E
:1001B00081E090E002C0880F991F6A95E2F7822BD8
:1001C00081BB089521B381E090E002C0880F991FA0
:1001D0006A95E2F78095822381BB089590E0FC0147
:1001E000E154F109E432F10508F067C0E25BFF4F2A
:1001F0000C949302413059F42BB381E090E002C09B
:10020000880F991F6A95E2F7822B8BBB08952BB359
:1002100081E090E002C0880F991F6A95E2F780950F
:1002200082238BBB0895413059F428B381E090E0DC
:1002300002C0880F991F6A95E2F7822B88BB089548
:1002400028B381E090E002C0880F991F6A95E2F719
:100250008095822388BB0895413059F425B381E00D
:1002600090E002C0880F991F6A95E2F7822B85BB48
:10027000089525B381E090E002C0880F991F6A9528
:10028000E2F78095822385BB0895413059F422B36B
:1002900081E090E002C0880F991F6A95E2F7822BF7
:1002A00082BB089522B381E090E002C0880F991FBD
:1002B0006A95E2F78095822382BB0895FF920F939F
:1002C0001F93CF93DF93F82EC0E0D0E0062F10E00D
:1002D000A8010C2E02C0559547950A94E2F741708B
:1002E0006C2F8F2D0E947E002196C430D10581F79E
:1002F000DF91CF911F910F91FF900895FF920F937F
:100300001F93CF93DF93F82EC0E0D0E0062F10E0CC
:10031000A8010C2E02C0559547950A94E2F741704A
:100320006C2F8F2D0E94EE002196C430D10581F7ED
:10033000DF91CF911F910F91FF9008959B01AC0128
:1003400060E072E18AE790E00E947102DA01C9017F
:100350004097A109B109B695A7959795879580B95A
:1003600011B8089582B9089584EC86BF06B607FED9
:10037000FDCF81B1887F8036E1F784EC86BF06B679
:1003800007FEFDCF81B1887F8038E1F783B1089502
:1003900041E064E084E60E94EE008FE99FE001976F
:1003A000F1F700C0000040E064E084E60E94EE0047
:1003B0008FE99FE00197F1F700C000000895CF9307
:1003C000C82F40E065E084E60E94EE006C2F629545
:1003D0006F7084E60E947E010E94C8016C2F84E643
:1003E0000E947E010E94C8018FEC97E00197F1F70F
:1003F00000C00000CF910895CF93C82F41E065E081
:1004000084E60E94EE006C2F62956F7084E60E9475
:100410007E010E94C8016C2F84E60E947E010E942A
:10042000C801CF9108956FEF84E60E945E0141E01C
:1004300064E084E60E947E0041E065E084E60E947C
:100440007E002FE788E391E0215080409040E1F763
:1004500000C0000082E00E94DF018FE19EE401976E
:10046000F1F700C0000088E20E94DF018FEC97E006
:100470000197F1F700C0000081E00E94DF018FECDE
:1004800097E00197F1F700C000008EE00E94DF01C5
:100490008FEC97E00197F1F700C0000086E00E9422
:1004A000DF018FEC97E00197F1F700C0000082E0D8
:1004B0000E94DF018FEC97E00197F1F700C0000088
:1004C00008950E94130260E573EC80E090E00E94C2
:1004D0009E0184E00E94B2010E94B4010E94FC01CE
:1004E000FBCFA1E21A2EAA1BBB1BFD010DC0AA1F48
:1004F000BB1FEE1FFF1FA217B307E407F50720F08D
:10050000A21BB30BE40BF50B661F771F881F991F07
:100510001A9469F760957095809590959B01AC0150
:10052000BD01CF010895EE0FFF1F0590F491E02D5E
:060530000994F894FFCFCE
:00000001FF
