:100000000C944E000C9463000C9463000C946300F9
:100010000C9463000C9463000C9463000C946300D4
:100020000C9463000C9463000C9463000C946300C4
:100030000C9463000C9463000C9463000C946300B4
:100040000C9463000C9463000C9463000C946300A4
:100050000C9463008B00A400BD00D600EE00EE00FF
:10006000EE00EE00EE00EE00EE00EE00EE00EE0020
:10007000EE00EE00EE00EE00EE00EE00EE00EE0010
:10008000EE00EE00EE00EE00EE00EE00EE00EE0000
:10009000EE00EE008B00A400BD00D60011241FBEB0
:1000A000CFE5D8E0DEBFCDBF10E0A0E6B0E0E2E3F0
:1000B000F6E002C005900D92A236B107D9F70E9472
:1000C000EF000C9417030C940000682F70E080E0A0
:1000D00090E00E94180220E030E048EC52E40E94D8
:1000E000750120E030E04FE753E40E94A4020E9433
:1000F000E701462F64E080E00E94F400089590E05C
:10010000FC01E154F109E432F10508F067C0E65D55
:10011000FF4F0C941103413059F42AB381E090E071
:1001200002C0880F991F6A95E2F7822B8ABB089557
:100130002AB381E090E002C0880F991F6A95E2F728
:10014000809582238ABB0895413059F427B381E01A
:1001500090E002C0880F991F6A95E2F7822B87BB57
:10016000089527B381E090E002C0880F991F6A9537
:10017000E2F78095822387BB0895413059F424B378
:1001800081E090E002C0880F991F6A95E2F7822B08
:1001900084BB089524B381E090E002C0880F991FCA
:1001A0006A95E2F78095822384BB0895413059F423
:1001B00021B381E090E002C0880F991F6A95E2F7B1
:1001C000822B81BB089521B381E090E002C0880FAB
:1001D000991F6A95E2F78095822381BB08958091EB
:1001E00060000E946500FFCFCF93882321F082300A
:1001F00009F46AC078C0623041F128F4662351F0F6
:10020000613099F070C0C42F633079F1643009F423
:1002100045C069C083B7816083BF83B7846083BFF3
:10022000789489B7816089BF5EC083B7886083BFD7
:1002300080E58CBF83B7816083BF83B7846083BF51
:10024000789489B7826089BF4EC0BB9A83B78860B3
:1002500083BF80E48CBF83B7816083BF83B7846032
:1002600083BF83B7806183BF3EC041E063E082E625
:100270000E947F0083B7806483BF83B7886083BF99
:10028000CCBF83B7816083BF83B7846083BF83B7EC
:10029000806183BF83B7806283BF25C041E063E094
:1002A00082E60E947F0083B7806483BF83B7886043
:1002B00083BFCCBF83B7816083BF83B7846083BFB4
:1002C00083B7806283BF0FC0653069F482B58860F0
:1002D00082BD85B5816085BD85B5846085BD789416
:1002E00089B7806489BFCF9108950E9489010C94D9
:1002F0006A020E94630258F00E945C0240F029F4F6
:100300005F3F29F00C94530251110C949E020C94FF
:1003100059020E947B0268F39923B1F3552391F3AC
:10032000951B550BBB27AA2762177307840738F064
:100330009F5F5F4F220F331F441FAA1FA9F335D0C1
:100340000E2E3AF0E0E832D091505040E695001C75
:10035000CAF72BD0FE2F29D0660F771F881FBB1F2F
:10036000261737074807AB07B0E809F0BB0B802D0D
:10037000BF01FF2793585F4F3AF09E3F510578F039
:100380000C9453020C949E025F3FE4F3983ED4F326
:10039000869577956795B795F7959F5FC9F7880F0D
:1003A000911D9695879597F90895E1E0660F771F5F
:1003B000881FBB1F621773078407BA0720F0621BF0
:1003C000730B840BBA0BEE1F88F7E09508950E941B
:1003D000830288F09F5798F0B92F9927B751B0F052
:1003E000E1F0660F771F881F991F1AF0BA95C9F7B9
:1003F00014C0B13091F00E949D02B1E008950C94B8
:100400009D02672F782F8827B85F39F0B93FCCF36A
:10041000869577956795B395D9F73EF49095809535
:10042000709561957F4F8F4F9F4F0895E89409C055
:1004300097FB3EF490958095709561957F4F8F4F17
:100440009F4F9923A9F0F92F96E9BB279395F6952D
:10045000879577956795B795F111F8CFFAF4BB0FAB
:1004600011F460FF1BC06F5F7F4F8F4F9F4F16C00F
:10047000882311F096E911C0772321F09EE8872F99
:10048000762F05C0662371F096E8862F70E060E055
:100490002AF09A95660F771F881FDAF7880F9695CE
:1004A000879597F9089597F99F6780E870E060E075
:1004B00008959FEF80EC089500240A9416161706FD
:1004C00018060906089500240A9412161306140645
:1004D00005060895092E0394000C11F4882352F0A8
:1004E000BB0F40F4BF2B11F460FF04C06F5F7F4F60
:1004F0008F4F9F4F089557FD9058440F551F59F047
:100500005F3F71F04795880F97FB991F61F09F3F00
:1005100079F087950895121613061406551FF2CF29
:100520004695F1DF08C0161617061806991FF1CF79
:1005300086957105610508940895E894BB276627A0
:100540007727CB0197F908950E94B7020C946A02AD
:100550000E945C0238F00E94630220F0952311F0A3
:100560000C9453020C94590211240C949E020E9484
:100570007B0270F3959FC1F3950F50E0551F629F6A
:10058000F001729FBB27F00DB11D639FAA27F00DEC
:10059000B11DAA1F649F6627B00DA11D661F829F13
:1005A0002227B00DA11D621F739FB00DA11D621FF8
:1005B000839FA00D611D221F749F3327A00D611D15
:1005C000231F849F600D211D822F762F6A2F1124F7
:1005D0009F5750409AF0F1F088234AF0EE0FFF1F2A
:1005E000BB1F661F771F881F91505040A9F79E3F81
:1005F000510580F00C9453020C949E025F3FE4F38B
:10060000983ED4F3869577956795B795F795E795D6
:100610009F5FC1F7FE2B880F911D9695879597F9DF
:100620000895EE0FFF1F0590F491E02D0994F894C2
:02063000FFCFFA
:02063200640062
:00000001FF
